{
  "contractName": "Treasure",
  "abi": [
    {
      "constant": true,
      "inputs": [
        {
          "name": "",
          "type": "bytes32"
        }
      ],
      "name": "treasuresReceived",
      "outputs": [
        {
          "name": "",
          "type": "uint8"
        }
      ],
      "payable": false,
      "stateMutability": "view",
      "type": "function"
    },
    {
      "constant": true,
      "inputs": [
        {
          "name": "",
          "type": "uint256"
        }
      ],
      "name": "treasureList",
      "outputs": [
        {
          "name": "",
          "type": "bytes32"
        }
      ],
      "payable": false,
      "stateMutability": "view",
      "type": "function"
    },
    {
      "inputs": [
        {
          "name": "treasureNames",
          "type": "bytes32[]"
        }
      ],
      "payable": false,
      "stateMutability": "nonpayable",
      "type": "constructor"
    },
    {
      "constant": true,
      "inputs": [
        {
          "name": "treasure",
          "type": "bytes32"
        }
      ],
      "name": "totalTreasuresFor",
      "outputs": [
        {
          "name": "",
          "type": "uint8"
        }
      ],
      "payable": false,
      "stateMutability": "view",
      "type": "function"
    },
    {
      "constant": false,
      "inputs": [
        {
          "name": "treasure",
          "type": "bytes32"
        }
      ],
      "name": "claimForTreasure",
      "outputs": [],
      "payable": false,
      "stateMutability": "nonpayable",
      "type": "function"
    },
    {
      "constant": true,
      "inputs": [
        {
          "name": "treasure",
          "type": "bytes32"
        }
      ],
      "name": "validTreasure",
      "outputs": [
        {
          "name": "",
          "type": "bool"
        }
      ],
      "payable": false,
      "stateMutability": "view",
      "type": "function"
    }
  ],
  "bytecode": "0x6060604052341561000f57600080fd5b6040516103da3803806103da833981016040528080518201919050508060019080519060200190610041929190610048565b50506100c0565b82805482825590600052602060002090810192821561008a579160200282015b82811115610089578251829060001916905591602001919060010190610068565b5b509050610097919061009b565b5090565b6100bd91905b808211156100b95760008160009055506001016100a1565b5090565b90565b61030b806100cf6000396000f30060606040526004361061006d576000357c0100000000000000000000000000000000000000000000000000000000900463ffffffff16806304cea36b146100725780635a021d56146100b35780636bf609f0146100f4578063734b7b4e1461011b578063ce7c24621461015a575b600080fd5b341561007d57600080fd5b610097600480803560001916906020019091905050610199565b604051808260ff1660ff16815260200191505060405180910390f35b34156100be57600080fd5b6100d86004808035600019169060200190919050506101b9565b604051808260ff1660ff16815260200191505060405180910390f35b34156100ff57600080fd5b6101196004808035600019169060200190919050506101fe565b005b341561012657600080fd5b61013c600480803590602001909190505061025b565b60405180826000191660001916815260200191505060405180910390f35b341561016557600080fd5b61017f60048080356000191690602001909190505061027f565b604051808215151515815260200191505060405180910390f35b60006020528060005260406000206000915054906101000a900460ff1681565b60006101c48261027f565b15156101cf57600080fd5b600080836000191660001916815260200190815260200160002060009054906101000a900460ff169050919050565b6102078161027f565b151561021257600080fd5b6001600080836000191660001916815260200190815260200160002060008282829054906101000a900460ff160192506101000a81548160ff021916908360ff16021790555050565b60018181548110151561026a57fe5b90600052602060002090016000915090505481565b600080600090505b6001805490508110156102d45782600019166001828154811015156102a857fe5b9060005260206000209001546000191614156102c757600191506102d9565b8080600101915050610287565b600091505b509190505600a165627a7a72305820d8d7c32d0da8e7eea9c596bf0eab1f0b33cccb91d72e3283f50f82a8248580390029",
  "source": "pragma solidity ^0.4.18;\n\ncontract Treasure {\n  mapping (bytes32 => uint8) public treasuresReceived;\n  bytes32[] public treasureList;\n  \n  /**\n  * Constructor\n  **/\n  function Treasure(bytes32[] treasureNames) public {\n    treasureList = treasureNames;\n  }\n\n  // count total treasure\n  function totalTreasuresFor(bytes32 treasure) view public returns (uint8) {\n    require(validTreasure(treasure));\n    return treasuresReceived[treasure];\n  }\n\n  // increase number treasure\n  function claimForTreasure(bytes32 treasure) public {\n    require(validTreasure(treasure));\n    treasuresReceived[treasure] += 1;\n  }\n  \n  // get valid treasure\n  function validTreasure(bytes32 treasure) view public returns (bool) {\n      for(uint i = 0; i < treasureList.length; i++) {\n          if (treasureList[i] == treasure) {\n            return true;\n          }\n        }\n        return false;\n      }\n  }\n",
  "sourcePath": "/Users/lap14205/Documents/home/blockchain_learning/ckbnodes/treasure-force-bridge/contracts/Treasure.sol",
  "compiler": {
    "name": "solc",
    "version": "0.4.18+commit.9cf6e910.Linux.g++"
  },
  "schemaVersion": "3.3.4",
  "updatedAt": "2021-08-11T14:30:06.457Z",
  "devdoc": {
    "methods": {}
  },
  "userdoc": {
    "methods": {}
  }
}